:020000040800F2
:10000000101F002001010008050A0008C1070008B0
:10001000010A00087D020008C1110008000000006C
:10002000000000000000000000000000910B00082C
:100030007703000800000000790A00081901000891
:100040001B0100081B0100081B0100081B01000820
:100050001B0100081B0100081B0100081B01000810
:100060001B0100081B0100081B0100081B01000800
:100070001B0100081B0100081B0100081B010008F0
:100080001B0100081B0100081B0100081B010008E0
:100090001B0100081B0100081B0100081B010008D0
:1000A0001B0100081B0100081B0100081B010008C0
:1000B0001B0100081B0100081B0100081B010008B0
:1000C0001B0100081B0100081B0100081B010008A0
:1000D0001B0100088D0D00089D0D0008AD0D0008E6
:1000E0001B0100081B0100081B010008DFF80CD0F1
:1000F00000F04CF8004800473D1E0008101F00208B
:100100000648804706480047FEE7FEE7FEE7FEE7B1
:10011000FEE7FEE7FEE7FEE7FEE7FEE72D0D00083F
:10012000ED000008CAB2401E10F8011F8A4202D03A
:100130000029F9D100207047421C10F8011B00294A
:10014000FBD1801A704730B504460020034600E01A
:100150005B1C934203D2E05CCD5C401BF8D030BD09
:1001600030B50B46014600202022012409E021FA87
:1001700002F59D4205D303FA02F5491B04FA02F584
:100180002844151EA2F10102F1DC30BD064C074DDA
:1001900006E0E06840F0010394E807009847103457
:1001A000AC42F6D3FFF7A6FF4C1E00086C1E0008F9
:1001B00070B504460D462946204600F061F8012836
:1001C00000D070BD062221A12046FFF7BCFF20B958
:1001D0002946204601F012FA35E006221DA12046EC
:1001E000FFF7B1FF20B92946204601F08DFB2AE038
:1001F00006221AA12046FFF7A6FF20B9294620466D
:1002000001F0E0FB1FE0062216A12046FFF79BFF4E
:1002100020B92946204601F053FC14E0062213A120
:100220002046FFF790FF20B92946204601F03CFD0B
:1002300009E006220FA12046FFF785FF18B92946DD
:10024000204601F0B7FA00BFBBE70000474E474722
:10025000412C000047504753412C00004750475362
:10026000562C00004750524D432C00004750565426
:10027000472C00004750474C4C2C000000BFFEE7C5
:100280007CB505460E46032E01DA00207CBDF01E2B
:10029000285C2A2801D00020F8E7002409E0285D26
:1002A00000F0800008B9285D08B90020EEE7601C66
:1002B00084B2F01EA042F2DC28780190012406E00E
:1002C000285D9DF8041048400190601C84B2F01E27
:1002D000A042F5DC0222694601A800F085FAB11EB1
:1002E000481902226946FFF72EFF08B90120CDE721
:1002F0000020CBE7014609B909487047012901D11F
:100300000848FAE7022901D10748F6E7032901D195
:100310000020F2E7042901D10020EEE70020ECE7FD
:100320001C000020440800206C10002008B5252087
:100330008DF8000000208DF8020001208DF80300E8
:10034000684600F061FB26208DF8000001208DF842
:1003500002008DF80300684600F056FB27208DF858
:10036000000002208DF8020001208DF8030068468D
:1003700000F04AFB08BD704770B5A4B08F4890F8F4
:100380005400532838D18D49086D01F0E5FC04462E
:100390008A48006D42F21071B0FBF1F201FB1205C8
:1003A0008648006DB0FBF1F68448B0F84E00CDE908
:1003B000005002948148B0F84E20334680A104A832
:1003C00000F010FF7D49086D01F0CDFC04467B482C
:1003D000006D42F21071B0FBF1F504A8FFF7ACFE1E
:1003E00004A9461875480094B0F84E202B467DA10C
:1003F000304600F0F7FE37E07049086D01F0ACFCC4
:1004000004466E48006D42F21071B0FBF1F201FB40
:1004100012056A48006DB0FBF1F66848B0F84E006E
:10042000CDE9005002946548B0F84E20334672A1E1
:1004300004A800F0D7FE6149086D01F094FC044661
:100440005E48006D42F21071B0FBF1F504A8FFF7B1
:1004500073FE04A9461859480094B0F84E202B4664
:1004600060A1304600F0BEFE04A800F0ABFE534889
:1004700090F85C00452838D15049886D01F06CFC3B
:1004800004464E48806D42F21071B0FBF1F201FB60
:1004900012054A48806DB0FBF1F64848B0F85600A6
:1004A000CDE9005002944548B0F8562033465BA190
:1004B00004A800F097FE4149886D01F054FC044601
:1004C0003E48006D42F21071B0FBF1F504A8FFF751
:1004D00033FE04A9461839480094B0F856202B463C
:1004E00057A1304600F07EFE37E03449886D01F0B8
:1004F00033FC04463148806D42F21071B0FBF1F2DA
:1005000001FB12052D48806DB0FBF1F62B48B0F8C9
:100510005600CDE9005002942848B0F856203346E2
:100520004CA104A800F05EFE2449886D01F01BFC7C
:1005300004462248806D42F21071B0FBF1F504A828
:10054000FFF7FAFD04A946181C480094B0F856209D
:100550002B463BA1304600F045FE04A800F032FED9
:100560001648406F0A21B0FBF1F201FB1204134858
:10057000406FB0FBF1F523462A463FA104A800F0E6
:1005800031FE04A800F01EFE0C4840684FF47A715A
:10059000B0FBF1F201FB120408484068B0FBF1F532
:1005A00023462A463AA104A800F01CFE04A800F045
:1005B00009FE3CA000F006FE24B070BD9418002097
:1005C000C4CFCEB32025303264A1E3253032642E6F
:1005D00025303464273D253032642E25303664A121
:1005E000E30000003D25303264A1E325303264276A
:1005F0002530326422000000B1B1CEB32025303264
:1006000064A1E3253032642E25303464273D253043
:1006100032642E25303664A1E30000002020B6AB02
:10062000BEAD2025303364A1E3253032642E253061
:100630003464273D253033642E25303664A1E30031
:100640003D25303364A1E325303264272530326400
:10065000220000002020CEF7BEAD2025303364A15B
:10066000E3253032642E25303464273D2530336451
:100670002E25303664A1E3002020CBD9B6C8203D1A
:10068000202535642E2564204B4D2F680000000086
:100690002020BAA3B0CE203D202535642E2564202D
:1006A0004D0000000D0000002DE9F041024600253C
:1006B0000026002000230024002791F803C00CF03E
:1006C0000F0591F803C00CF0100CBCF1000F03D023
:1006D00091F802C04CEA050591F800C0BCF1000F8A
:1006E00031D0146800202BE04FF0010C0CFA00F31D
:1006F000B1F800C00CEA03069E4220D183004FF0FF
:100700000F0C0CFA03F7BC4305FA03FC4CEA040493
:1007100091F803C0BCF1280F06D14FF0010C0CFA80
:1007200000FCC2F814C00AE091F803C0BCF1480F05
:1007300005D14FF0010C0CFA00FCC2F810C0401CAF
:100740000828D1D31460B1F800C0BCF1FF0F34DD2C
:10075000546800202EE000F1080C4FF0010808FA60
:100760000CF3B1F800C00CEA03069E4221D18300CD
:100770004FF00F0C0CFA03F7BC4305FA03FC4CEAEC
:10078000040491F803C0BCF1280F05D100F1080C56
:1007900008FA0CF8C2F8148091F803C0BCF1480FB5
:1007A00007D100F1080C4FF0010808FA0CF8C2F864
:1007B0001080401C0828CED35460BDE8F0810000B2
:1007C0000EE00849096881F48071064A1160002032
:1007D00001E0411C88B242F210718842F9DB00BF8F
:1007E000EFE700000C08014030B504460B4600213D
:1007F00014E0207801F001050DB9001102E000F0CD
:100800000F00641C0A2803DA00F13005E8B202E0A8
:1008100000F13705E8B258544D1CE9B29142E8DBCB
:1008200000255D5430BD000000B585B001210520D4
:1008300000F034F90121880300F030F94FF4007022
:10084000ADF8100018208DF8130003208DF8120069
:1008500004A96648FFF728FF4FF48060ADF8100048
:1008600004208DF8130004A96048FFF71DFF4FF422
:10087000E13000900020ADF80400ADF80600ADF8BE
:100880000800ADF80C000C20ADF80A006946584885
:1008900000F0F8FA012240F22551554800F0CDFA57
:1008A0000121534800F093FA4021514800F086FAA4
:1008B0000121052000F0F2F80121480400F0DEF8E3
:1008C0000420ADF8100018208DF8130003208DF8D7
:1008D000120004A94548FFF7E7FE0820ADF8100014
:1008E00004208DF8130004A94048FFF7DDFE04A999
:1008F0003E48FFF7D9FE4FF4165000900020ADF8A7
:100900000400ADF80600ADF80800ADF80C000C20AE
:10091000ADF80A006946374800F0B4FA012240F207
:100920002551344800F089FA0121324800F04FFA8D
:100930004021304800F042FA0121082000F0AEF8D2
:1009400010208DF8130003208DF812000420ADF85C
:10095000100004A92848FFF7A7FE0121092000F094
:100960009DF80121880400F089F84FF48060ADF80B
:10097000100018208DF8130003208DF8120004A930
:100980001D48FFF791FE4FF40060ADF81000042001
:100990008DF8130004A91848FFF786FE04A916482D
:1009A000FFF782FE4FF4165000900020ADF80400CF
:1009B000ADF80600ADF80800ADF80C000C20ADF85D
:1009C0000A0069460D4800F05DFA012240F2255107
:1009D0000A4800F032FA0121084800F0F8F94021F5
:1009E000064800F0EBF905B000BD0000000801402A
:1009F0000038014000440040000C01400048004025
:100A000000BFFEE77047000070B5002100230F22F1
:100A1000C47804B3154C246804F4E064C4F5E064BD
:100A2000210AC1F10403CA40447804FA03F184782E
:100A30001440214309010E4C0678A155047804F0B6
:100A40001F050124AC4005786D11AD0005F1E025CE
:100A5000C5F8004109E0047804F01F050124AC400A
:100A6000044D0678761145F8264070BD0CED00E087
:100A700000E400E080E100E07047000029B1064A90
:100A8000D2690243044BDA6104E0034AD26982432B
:100A9000014BDA61704700000010024029B1064A9C
:100AA00092690243044B9A6104E0034A92698243CB
:100AB000014B9A61704700000010024030B50021E0
:100AC0000022002400232D4D6D6805F00C0121B19A
:100AD000042905D0082923D105E0294D056022E02D
:100AE000274D05601FE0254D6D6805F47012234DFC
:100AF0006D6805F48034022505EB92421CB9214D46
:100B0000554305600BE01D4D6D6805F400351DB1C2
:100B10001C4D5543056002E0194D5543056002E048
:100B2000174D056000BF00BF144D6D6805F0F00162
:100B30000909154D6B5C0568DD4045600F4D6D681A
:100B400005F4E061090A104D6B5C4568DD40856085
:100B50000A4D6D6805F46051C90A0B4D6B5C456820
:100B6000DD40C560054D6D6805F44041890B074DBA
:100B70006B5CC568B5FBF3F5056130BD0010024044
:100B800000127A0000093D0004000020140000203B
:100B9000704710B500F002F810BD00000CB5002041
:100BA000019000903348006840F48030314908607B
:100BB00000BF3048006800F4003000900198401CED
:100BC0000190009818B90198B0F5A06FF1D12948AB
:100BD000006800F4003010B10120009001E0002016
:100BE00000900098012843D12348006840F010008D
:100BF000214908600846006820F0030008600846A4
:100C0000006840F0020008601A48406819494860CE
:100C10000846406848600846406840F48060486084
:100C20000846406820F47C1048600846406840F45C
:100C3000E81048600846006840F08070086000BF17
:100C40000C48006800F000700028F9D0094840689E
:100C500020F00300074948600846406840F0020061
:100C6000486000BF0348406800F00C000828F9D134
:100C70000CBD00000010024000200240F0B5044608
:100C8000214608782D2802D10125491C00E00025C5
:100C90000022002613E00B782E2B01D1491C0B7883
:100CA000302B09DB392B07DCA3F1300002EB820784
:100CB00000EB4702491C00E003E0701CC6B20F2E97
:100CC000E9DB00BF012D01D15042F0BD1046FCE729
:100CD000F0B504460E46214608782D2804D1012798
:100CE000491C701EC6B200E000270022002513E058
:100CF0000B782E2B01D1491C0B78302B09DB392BBB
:100D000007DCA3F1300002EB820C00EB4C02491C23
:100D100000E003E0681CC5B2B542E9DB00BF012F6B
:100D200001D15042F0BD1046FCE7000010B5134859
:100D3000006840F001001149086008464068104909
:100D400008400E494860084600680E4908400B49B3
:100D500008600846006820F4802008600846406863
:100D600020F4FE0048604FF41F008860FFF711FF79
:100D70004FF000600449086010BD00000010024000
:100D80000000FFF8FFFFF6FE08ED00E010B5024896
:100D900000F012F910BD00001C00002010B5024840
:100DA00000F00AF910BD00004408002010B5024808
:100DB00000F002F910BD00006C10002001F4007278
:100DC000B2F5007F00D100BFCA430280704721B155
:100DD000828942F40052828104E082894DF6FF73D9
:100DE0001A408281704770B5024600240023002516
:100DF000002040F66A16B14200D100BFC1F342158F
:100E000001F01F03012606FA03F3012D02D1968992
:100E1000334006E0022D02D1168A334001E0968A63
:100E200033400C12012606FA04F41688344013B13C
:100E30000CB1012000E0002070BDF0B50346002495
:100E400000260025002040F66A17B94200D100BFF5
:100E50001846C1F3421401F01F06012707FA06F5F0
:100E6000012C01D10C3004E0022C01D1103000E043
:100E700014301AB107682F43076002E00768AF43D8
:100E80000760F0BD2DE9F04786B005460E46002408
:100E9000A24600BFA1460027B08900B100BF2F467F
:100EA0002C8A4CF6FF700440F08804432C82AC89F5
:100EB0004EF6F3100440B088318908437189084325
:100EC0000443AC81AC8A4FF6FF400440B089044330
:100ED000AC8201A8FFF7F2FD1F48874202D1DDF87E
:100EE00010A001E0DDF80CA0A88900F4004040B19A
:100EF0000AEBCA0000EB0A1031684900B0FBF1F8B8
:100F000007E00AEBCA0000EB0A1031688900B0FB69
:100F1000F1F86420B8FBF0F004012009642101FB22
:100F20001089A88900F4004040B1322000EBC900CC
:100F3000B0FBF1F000F00700044308E0322000EBC2
:100F400009106421B0FBF1F000F00F0004432C8184
:100F500006B0BDE8F08700000038014001468888EF
:100F6000C0F308007047C1F308028280704770B573
:100F700004460D46012000F058F9668B002000F071
:100F800054F90EB9002070BD218BA068405C287018
:100F9000012000F04AF9208B401C80B22083E189B7
:100FA000884201DB00202083608B401E608300208C
:100FB00000F03BF90120E6E770B5044640F2255108
:100FC0002068FFF710FFE0B12068FFF7C7FFC5B248
:100FD000E18AA0684554E08A401C80B2E082E18941
:100FE000884201DB0020E082608BE189884202DADE
:100FF000608B401C6083606A10B12846616A884734
:1010000000BF40F227712068FFF7EDFE08B3A08A09
:1010100060B9002240F227712068FFF70EFF01221D
:1010200040F226612068FFF708FF37E0638A6268B4
:10103000D15C2068FFF797FF608A401C80B2608215
:10104000A189884201DB00206082A08A401EA08224
:1010500024E040F226612068FFF7C5FEF0B1A08AC7
:1010600050B9002240F226612068FFF7E6FE206AB0
:10107000A0B1206A804711E0638A6268D15C206871
:10108000FFF771FF608A401C80B26082A1898842AC
:1010900001DB00206082A08A401EA08270BDF8B5EE
:1010A00004460E461746002529E00EE0012000F018
:1010B000BCF8A08A0090002000F0B7F8A089BDF825
:1010C0000010884200DD01E000BFEFE700BF705D67
:1010D000228A61688854012000F0A7F8208A401C09
:1010E00080B22082A189884201DB00202082A08A70
:1010F000401CA082002000F098F8681C85B2BD4218
:10110000D3DB012240F227712068FFF796FEF8BD7D
:101110001F482049086020484860204888604FF4F4
:1011200080608881C881002008824882C882088344
:1011300048838882C8610862486219481949086072
:1011400019484860194888604FF480608881C881D8
:10115000002008824882C882088348838882C86148
:1011600008624862124813490860134848601348EF
:1011700088604FF480608881C8810020088248829E
:10118000C882088348838882C861086248627047C1
:10119000003801401C0000204400002044040020CE
:1011A00000440040440800206C0800206C0C002023
:1011B000004800406C10002094100020941400207F
:1011C00000BFFEE70FB4054B10B503A9044A02980F
:1011D00000F02EF810BC5DF814FB0000E9150008C3
:1011E000180000200FB4084B10B504A902AA0398F8
:1011F00000F01EF8044602A9002000F0BAF92046CB
:1012000010BC5DF814FB00007315000802E008C86C
:10121000121F08C1002AFAD170477047002001E070
:1012200001C1121F002AFBD1704780F3108870475C
:101230002DE9FF4F8BB088460546002606E025289D
:101240000BD0DDE90D1290476D1C761C2878002824
:10125000F5D10FB03046BDE8F08F0024A146A2467C
:101260000122AE4900E0044315F8013F203B02FA99
:1012700003F00842F7D128782A2810D06FF02F0207
:101280002878A0F13001092915D809EB890102EB72
:10129000410144F0020400EB01096D1CF0E758F82D
:1012A000041B5FEA010903D544F40054C9F10009A5
:1012B00044F002046D1C28782E2817D115F8010F70
:1012C00044F004042A280ED06FF02F022878A0F1F1
:1012D000300109290AD80AEB8A0102EB410100EB2F
:1012E000010A6D1CF2E758F804AB6D1C28786C28D5
:1012F0000FD006DC4C2817D068280DD06A2814D1EE
:1013000004E0742810D07A280FD10DE044F40014C2
:101310000AE044F4801401E044F440146978814206
:1013200002D104F580146D1C6D1C2878692865D0E5
:1013300006DC00288DD0632827D0642806D15DE024
:101340006E2808D073282AD0752877D0DDE90D12D1
:101350009047761CE0E0C4F30250022809D003282D
:101360000DD0D8F8001004280DD00E6008F1040844
:10137000D2E0D8F80010F217C1E90062F6E7D8F819
:1013800000100E80F2E70E70F0E718F8041B8DF8DD
:10139000001000208DF80100EB46012003E058F812
:1013A00004BB4FF0FF3061074FF0000701D40AE0A3
:1013B0007F1C57450DDA8742FADB1BF8071000291E
:1013C000F6D106E07F1C8742FCDB1BF807100029E2
:1013D000F8D1DDE90D23A9EB07008146214600F095
:1013E000B1F83044C61904E0DDE90D121BF8010B19
:1013F00090477F1EF8D22146484688E058F8040BF3
:10140000C4F302514FF00A0B032900D100B20429A2
:1014100000D140B2002802DA40422D2102E021052D
:1014200005D52B218DF82410012104E006E0E10709
:1014300010D02021F6E708AF089113E058F8040B0C
:10144000C4F302514FF00A0B032900D180B20429E2
:1014500000D1C0B20021EEE75946FEF781FE3031DF
:1014600007F8011D0028F7D1ADEB070000F1200BB4
:10147000600702D524F4803401E04FF0010ADA4518
:1014800002DDAAEB0B0000E00020824600EB0B011E
:1014900008980144A9EB01000A90E00306D4DDE9B5
:1014A0000D2321460A9800F04DF806444FF000093C
:1014B00008E009A911F80900DDE90D12904709F1CA
:1014C0000109761C08998945F3DBE0030CD5DDE9B9
:1014D0000D2321460A9800F035F8064404E0DDE9C2
:1014E0000D1230209047761CBAF10001AAF1010AD2
:1014F000F5DC05E0DDE90D1217F8010B9047761CCD
:10150000BBF10001ABF1010BF4DC0A982146DDE9E7
:101510000D2300F005F806446D1C97E6092801002C
:101520002DE9F041044600251E461746880404D4E0
:1015300005E039462020B0476D1C641EF9D52846C9
:10154000BDE8F0812DE9F041044600251E46904695
:10155000C80301D5302700E02027880404D505E022
:1015600041463846B0476D1C641EF9D52846BDE893
:10157000F0810A68531C0B601070704710B5FFF7BC
:10158000C7FDFFF751F9FEF7D1FE10BD70B5054656
:101590000E462846FEF7AEFE04460CB9002070BD8C
:1015A00031462046FFF7E3FCF9E72DE9F041054617
:1015B0000E4617462846FEF79DFE04460CB9BDE8C8
:1015C000F081E06908B1E06980473A46314620463B
:1015D000FFF765FD00BFF2E713B50446012201A93C
:1015E0002046FFF7E2FF1CBD70B504460D46E1B290
:1015F0000020FFF7F1FF204670BD000070B50546E2
:101600000E462C460020A0552C212046FEF78AFDD0
:10161000044604B970BD641C02212046FFF758FB44
:10162000634981F86200A41C02212046FFF750FBA9
:101630005F4981F86300A41C02212046FFF748FBA4
:101640005B4981F86400A41C2C212046FEF76AFD4A
:10165000044604B9DEE7641C02212046FFF738FB8C
:101660005349A1F84E00A41C02212046FFF730FB8D
:1016700042F2107148434E490865E41C042120469B
:10168000FFF726FB4A49096D084449490865241DAE
:101690002C212046FEF746FD044604B9BAE7641C37
:1016A0002078532803D1424981F8540007E020787C
:1016B0004E2803D13E4981F8540000E0AAE72C21CE
:1016C0002046FEF72FFD044604B9A3E7641C03215E
:1016D0002046FFF7FDFA3649A1F85600E41C022126
:1016E0002046FFF7F5FA42F2107148433049886509
:1016F000E41C04212046FFF7EBFA2D49896D0844CC
:101700002B498865241D2C212046FEF70BFD04463D
:1017100004B97FE7641C2078452803D1244981F867
:101720005C0005E02078572802D1214981F85C004F
:101730002C212046FEF7F6FC044604B96AE7641C37
:101740002078312802D02078322803D1012018498E
:10175000487002E00020164948702C212046FEF710
:10176000E1FC044604B955E7641C2046FFF786FAFD
:101770000F490877A41C2C212046FEF7D3FC044611
:1017800004B947E7641C2046FFF778FA0849088344
:101790002C212046FEF7C6FC044604B93AE7641C37
:1017A0002046FFF76BFA0249486000BF32E70000AD
:1017B0009418002070B505460E462C460020A05512
:1017C0002C212046FEF7AEFC044604B970BD641C13
:1017D00002212046FFF77CFA4A49A1F84E00A41CDA
:1017E00002212046FFF774FA42F21071484345493E
:1017F0000865E41C04212046FFF76AFA4149096D97
:10180000084440490865241D2C212046FEF78AFC27
:10181000044604B9DAE7641C2078532803D1394917
:1018200081F8540007E020784E2803D1354981F82B
:10183000540000E0CAE72C212046FEF773FC044662
:1018400004B9C3E7641C03212046FFF741FA2D4980
:10185000A1F85600E41C02212046FFF739FA42F2B3
:101860001071484327498865E41C04212046FFF78E
:101870002FFA2449896D084422498865241D2C21AA
:101880002046FEF74FFC044604B99FE7641C20780D
:10189000452803D11B4981F85C0005E020785728D2
:1018A00002D1184981F85C002C212046FEF73AFC51
:1018B000044604B98AE7641C02212046FFF708FAAF
:1018C000104981F86200A41C02212046FFF700FAAB
:1018D0000C4981F86300A41C02212046FFF7F8F9A7
:1018E000084981F86400A41C2C212046FEF71AFC4C
:1018F000044604B96AE7641C2078412800D065E7F3
:1019000000BF63E7941800202DE9F04106460F461A
:1019100034460020E0552C212046FEF703FC044607
:101920000CB9BDE8F081641C2078254908722C218F
:101930002046FEF7F7FB044604B9F2E7641C207862
:101940001F494872002510E02C212046FEF7EAFBD3
:10195000044604B9E5E7641C2046FFF78FF9C1B2DD
:1019600017480A304155681CC5B20C2DECDB2C2100
:101970002046FEF7D7FB044604B9D2E7641C204694
:10198000FFF77CF90E49C8822C212046FEF7CAFBDE
:10199000044604B9C5E7641C2046FFF76FF90849FF
:1019A00008832C212046FEF7BDFB044604B9B8E7A6
:1019B000641C2046FFF762F90149488300BFB0E785
:1019C000941800202DE9F0410746884600263C4641
:1019D000002004F808002C212046FEF7A3FB044653
:1019E0000CB9BDE8F081641C2C212046FEF79AFB5F
:1019F000044604B9F5E7641C2046FFF73FF9C6B278
:101A00002C212046FEF78EFB044604B9E9E7641C4E
:101A10002046FFF733F92949087700254AE02C21B1
:101A20002046FEF77FFB044604B9DAE7641C204633
:101A3000FFF724F9C1B2701E05EB80021F480A307F
:101A400081542C212046FEF76DFB044604B9C8E7FB
:101A5000641C2046FFF712F9C1B2701E05EB80022C
:101A600016481D3081542C212046FEF75BFB0446AE
:101A700004B9B6E7641C2046FFF700F981B2701E76
:101A800005EB80020D482A3020F812102C21204648
:101A9000FEF748FB044604B9A3E7641C2046FFF7A1
:101AA000EDF8C1B2701E05EB80020448423081544B
:101AB000681CC5B2042DB2DB00BF92E79418002069
:101AC00070B505460E462C460020A0552C21204618
:101AD000FEF728FB044604B970BD641C02212046B1
:101AE000FFF7F6F86F4981F86200A41C0221204636
:101AF000FFF7EEF86B4981F86300A41C0221204631
:101B0000FFF7E6F8674981F86400E41C03212046EA
:101B1000FFF7DEF86349A1F866002C212046FEF7A6
:101B200001FB044604B9D7E7641C2078412803D0A0
:101B300000205C494870CFE701205A494870641C76
:101B40002C212046FEF7EEFA044604B9C4E7641CD3
:101B500002212046FFF7BCF85249A1F84E00A41C10
:101B600002212046FFF7B4F842F2107148434D4974
:101B70000865E41C04212046FFF7AAF84949096DCD
:101B8000084448490865241D2C212046FEF7CAFA5E
:101B9000044604B9A0E7641C2078532803D14149C6
:101BA00081F8540007E020784E2803D13D4981F8A0
:101BB000540000E090E72C212046FEF7B3FA0446DB
:101BC00004B989E7641C03212046FFF781F83549F1
:101BD000A1F85600E41C02212046FFF779F842F2F2
:101BE000107148432F498865E41C04212046FFF703
:101BF0006FF82C49896D08442A498865241D2C21D9
:101C00002046FEF78FFA044604B965E7641C207885
:101C1000452803D1234981F85C0005E02078572846
:101C200002D1204981F85C002C212046FEF77AFA87
:101C3000044604B950E7641C2046FFF71FF8194911
:101C400008672C212046FEF76DFA044604B943E7E5
:101C5000641C2046FFF712F81249A1F86A002C21F3
:101C60002046FEF75FFA044604B935E7641C0221FA
:101C70002046FFF72DF80B4981F86100A41C0221D2
:101C80002046FFF725F8074981F86000A41C0221CF
:101C90002046FFF71DF80349A1F85E00A41C00BF11
:101CA0001AE700009418002070B505460E462C4631
:101CB0000020A0552C212046FEF734FA044604B932
:101CC00070BD641C2046FEF7D9FF2249A1F86A00C6
:101CD0002C212046FEF726FA044604B9F0E7641CDE
:101CE0002C212046FEF71EFA044604B9E8E7641CDE
:101CF0002046FEF7C3FF1749A1F86C002C212046AF
:101D0000FEF710FA044604B9DAE7641C2C212046D9
:101D1000FEF708FA044604B9D2E7641C2046FEF731
:101D2000ADFF0C4908672C212046FEF7FBF904465D
:101D300004B9C5E7641C2C212046FEF7F3F90446DC
:101D400004B9BDE7641C2046FEF798FF01494867C7
:101D500000BFB5E794180020014664224A433C23A3
:101D6000B2FBF3F07047024642F21070B2FBF0F3A0
:101D700000FB1320C0EB0010810042F21070B1FB99
:101D8000F0F300FB131041F28833984204D358005B
:101D9000B1FBF0F0411C03E042F21070B1FBF0F136
:101DA00088B2704708B53DE069460120FFF7EEFBB9
:101DB00090B31E48007850B99DF8000024282FD118
:101DC00001201A49087000201949088028E01848A5
:101DD0000088B0F5007F20D29DF8001014480288DA
:101DE0000088401C124B1880124881549DF8000056
:101DF0000D2803D09DF800000A2811D10C48008856
:101E0000401E81B20B48FEF7D3F900200749087045
:101E100001200949087003E003E00020034908702D
:101E200000E000E0C0E700BF08BD000000000020A7
:101E3000020000200C19002094180020FFF79EFBE0
:101E400003E0FFF7AFFFFEF797FAFAE76C1E000812
:101E5000000000201C0000000C120008881E000872
:101E60001C000020F41E00001C12000800000000EE
:101E70000000000001020304010203040607080930
:081E8000020406080000000046
:04000005080000ED02
:00000001FF
